:020000040800F2
:1000000010980020E10100081513000817130008DC
:100010001B1300081F130008231300080000000032
:10002000000000000000000000000000490100087E
:1000300027130008000000008D01000829130008A4
:10004000FB010008FB010008FB010008FB010008A0
:10005000FB010008FB010008FB010008FB01000890
:10006000FB010008FB010008FB010008FB01000880
:10007000FB010008FB010008FB010008FB01000870
:10008000FB010008FB010008FB010008FB01000860
:10009000FB010008FB010008FB010008FB01000850
:1000A000FB010008FB010008FB010008FB01000840
:1000B000FB010008FB010008FB010008FB01000830
:1000C000FB010008FB010008FB010008FB01000820
:1000D000FB010008FB010008FB010008FB01000810
:1000E000FB010008FB010008FB010008FB01000800
:1000F000FB010008FB010008FB010008FB010008F0
:10010000FB010008FB010008FB010008FB010008DF
:10011000FB010008FB010008FB010008FB010008CF
:10012000FB010008FB010008FB010008FB010008BF
:10013000DFF810D004F03AF8004800471711000823
:10014000AFF3008010980020224B19680868B0E8CF
:10015000F00F80F30988BFF36F8F4FF0000080F33A
:1001600011884EF00D0E7047000000000648006830
:10017000006880F3088862B661B6BFF34F8FBFF3A3
:100180006F8F00DF00BF00BF08ED00E0EFF30980D4
:10019000BFF36F8F0F4B1A6820E9F00F106008B59E
:1001A0004FF0500080F31188BFF34F8FBFF36F8F74
:1001B00002F045FC4FF0000080F31188BDE80840D4
:1001C00019680868B0E8F00F80F30988BFF36F8FF3
:1001D000704700BF38000020EFF305807047000033
:1001E0000648804706480047FEE7FEE7FEE7FEE7D1
:1001F000FEE7FEE7FEE7FEE7FEE7FEE7E3020008B4
:10020000310100080CB50020019000906C48006896
:1002100040F480306A49086000BF6948006800F413
:10022000003000900198401C0190009818B9019886
:10023000B0F5A06FF1D16248006800F4003010B151
:100240000120009001E0002000900098012843D197
:100250005C48006840F010005A4908600846006891
:1002600020F0030008600846006840F002000860C3
:10027000534840685249486008464068486008460C
:10028000406840F4806048600846406820F47C1074
:1002900048600846406840F4E81048600846006836
:1002A00040F08070086000BF4548006800F00070B2
:1002B0000028F9D04248406820F0030040494860D7
:1002C0000846406840F00200486000BF3C48406873
:1002D00000F00C000828F9D10CBD10B5FFF792FF13
:1002E00010BD10B53648006840F001003449086080
:1002F000084640683449084031494860084600686B
:10030000324908402E4908600846006820F48020E1
:1003100008600846406820F4FE0048604FF41F0063
:100320008860FFF7DAFF4FF000602949086010BDD0
:1003300010B5002100200022214B5B6803F00C0166
:1003400021B1042906D0082928D107E0214B224CED
:10035000236027E01F4B204C236023E0184B5B6891
:1003600003F47010164B5B6803F48032022303EB36
:10037000904022B9194B4343174C23600DE0104BBA
:100380005B6803F4003323B1144B4343124C2360E6
:1003900003E0104B4343104C236003E00D4B0E4C25
:1003A000236000BF00BF064B5B68C3F303130C4C14
:1003B000E15C094B1B68CB40074C236010BD00007B
:1003C00000100240002002400000FFF8FFFFF6FE90
:1003D00008ED00E000127A000000002000093D0056
:1003E0000400002031490143314A1160704770B563
:1003F000002100230F22C47804B32D4C246804F498
:10040000E064C4F5E064210AC1F10403CA40447801
:1004100004FA03F18478144021430901254C06783D
:10042000A155047804F01F050124AC4005786D1136
:10043000AD0005F1E025C5F8004109E0047804F0BD
:100440001F050124AC401C4D0678761145F8264066
:1004500070BD1A4A0A400243154B1B1F1A607047B1
:1004600039B1134A121D12680243114B1B1D1A6049
:1004700006E00F4A121D126882430D4B1B1D1A60C5
:100480007047042808D14FF0E021096941F00401C8
:100490004FF0E022116107E04FF0E021096921F0FF
:1004A00004014FF0E0221161704700000000FA05DE
:1004B0000CED00E000E400E080E100E080FFFF1FC1
:1004C00010B50446CC48844208D10121042000F034
:1004D0002DFB0021042000F029FB46E0C7488442A0
:1004E00008D10121082000F021FB0021082000F0A4
:1004F0001DFB3AE0C248844208D10121102000F0DF
:1005000015FB0021102000F011FB2EE0BD488442B5
:1005100008D10121202000F009FB0021202000F05B
:1005200005FB22E0B848844208D10121402000F0B8
:10053000FDFA0021402000F0F9FA16E0B3488442A9
:1005400008D10121802000F0F1FA0021802000F084
:10055000EDFA0AE0AE48844207D10121801500F08F
:10056000E5FA0021A01500F0E1FA10BD10B5012157
:10057000084600F0DBFA0021012000F0D7FA10BD98
:100580002DE9F0410246002500260020002300242A
:10059000002791F803C00CF00F0591F803C00CF090
:1005A000100CBCF1000F03D091F802C04CEA050515
:1005B00091F800C0BCF1000F31D0146800202BE08E
:1005C0004FF0010C0CFA00F3B1F800C00CEA03067E
:1005D0009E4220D183004FF00F0C0CFA03F7BC436E
:1005E00005FA03FC4CEA040491F803C0BCF1280F9F
:1005F00006D14FF0010C0CFA00FCC2F814C00AE05E
:1006000091F803C0BCF1480F05D14FF0010C0CFA72
:1006100000FCC2F810C0401C0828D1D31460B1F807
:1006200000C0BCF1FF0F34DD546800202EE000F163
:10063000080C4FF0010808FA0CF3B1F800C00CEAFE
:1006400003069E4221D183004FF00F0C0CFA03F7F2
:10065000BC4305FA03FC4CEA040491F803C0BCF166
:10066000280F05D100F1080C08FA0CF8C2F8148024
:1006700091F803C0BCF1480F07D100F1080C4FF00E
:10068000010808FA0CF8C2F81080401C0828CED3E4
:100690005460BDE8F0814FF6FF7101800221817046
:1006A0000421C17070470246002093680B400BB1D3
:1006B000012000E0002070470146886880B2704742
:1006C00002460020D3680B400BB1012000E000205F
:1006D00070470146C86880B2704701617047416148
:1006E00070470AB1016100E041617047C160704725
:1006F0004FF480320A43826181618261826982693A
:10070000704702460020434B18684FF6807318402C
:1007100040EA021008433F4B186070473E49C861E9
:100720007047F0B50A46002300240021002500F0A0
:100730000046B6F1004F02D1364EF16901E0354E68
:100740007168C0F3034583B200F44016B6F5401F4C
:1007500008D121F070612F4E766826F070662D4F1B
:100760007E6012E000F48016B6F5801F06D10326E5
:1007700006FA05F4A14341F0706106E0460D36012A
:1007800003FA06F6B14341F0706122B1460D36011D
:1007900003FA06F6314300F00046B6F1004F02D1ED
:1007A0001C4EF16101E01B4E7160F0BD30B50022BE
:1007B0008B071C0F0F2303FA04F2164B08338C101F
:1007C00053F824309343134C08348D1044F82530EB
:1007D00023468C1053F824308C07240F00FA04F4BD
:1007E00023430C4C08348D1044F8253030BD0A49A1
:1007F000DC3108607047000000080140000C014037
:10080000001001400014014000180140001C01408C
:10081000002001400000014000002042DF48006845
:1008200040F00100DD49086008464068DC490840A6
:10083000DA49486008460068DA490840D749086044
:100840000846006820F4802008600846406820F4CC
:10085000FE0048604FF41F0088607047CF49096868
:1008600021F48031CD4A11601146096821F48021BC
:100870001160B0F5803F03D0B0F5802F0ED106E0B7
:10088000C649096841F48031C44A116007E0C34990
:10089000096841F4A021C14A116000E000BF00BF17
:1008A000704710B501460022002300204A11012A9A
:1008B00002D1BA4C236806E0022A02D1B74C236A5F
:1008C00001E0B64C636A01F01F02012494401C4011
:1008D0000CB1012000E0002010BD38B500200090D0
:1008E0000024002500BF3120FFF7DBFF05460098FC
:1008F000401C00900098B0F5A06F01D0002DF2D000
:100900003120FFF7CEFF08B1012400E0002420468B
:1009100038BD01460020A14A106820F0F80040EAE6
:10092000C10010607047A04908607047024600206F
:100930009A4B586820F47C1042EA01031843974B05
:100940005860704798490866704701460020934AEE
:10095000506820F003000843506070478F4840689B
:1009600000F00C007047014600208C4A506820F0CF
:10097000F00008435060704701460020874A5068E5
:1009800020F4E06008435060704701460020834A2D
:10099000506820F4605040EAC1005060704729B1AF
:1009A0007E4A527A02437D4B5A7204E07B4A527A65
:1009B00082437A4B5A7270477B49D831086070473E
:1009C00001460020754A506820F4404008435060BA
:1009D00070470021714A20321170704A82F820104D
:1009E000012802D004280AD104E001216B4A2032F8
:1009F000117005E00521694A2032117000E000BF46
:100A000000BF70476949086070476449096A01433B
:100A1000624A11627047654944390860704730B5D1
:100A200000210022002400235C4D6D6805F00C01BC
:100A300021B1042905D0082923D105E05C4D0560CA
:100A400022E05B4D05601FE0544D6D6805F47012A7
:100A5000524D6D6805F48034022505EB92421CB9B5
:100A6000544D554305600BE04C4D6D6805F4003561
:100A70001DB1504D5543056002E04D4D5543056095
:100A800002E04B4D056000BF00BF444D6D6805F0AE
:100A9000F0010909484D6B5C0568DD4045603F4D3C
:100AA0006D6805F4E061090A434D6B5C4568DD4003
:100AB00085603A4D6D6805F46051C90A3E4D6B5C26
:100AC0004568DD40C560354D6D6805F44041890BD2
:100AD0003A4D6B5CC568B5FBF3F5056130BD29B1D6
:100AE0002E4A526902432D4B5A6104E02B4A526947
:100AF00082432A4B5A61704729B1284A92690243BE
:100B0000264B9A6104E0254A92698243234B9A61FD
:100B1000704729B1214AD2690243204BDA6104E0CF
:100B20001E4AD26982431D4BDA61704729B11B4AC4
:100B3000D2680243194BDA6004E0184AD268824353
:100B4000164BDA60704729B1144A12690243134BFD
:100B50001A6104E0114A12698243104B1A6170470E
:100B600012494039086070470F49C86470470B4903
:100B7000C87170470948406A40F080700749486270
:100B8000704701460020054A92680A400AB10120D8
:100B900000E0002070470149887270470010024051
:100BA0000000FFF8FFFFF6FE0000424280044242D0
:100BB00000127A0000093D001400002024000020EB
:100BC00010B50446FB48844209D101218803FFF790
:100BD000ADFF00214FF48040FFF7A8FF32E0F64858
:100BE000844209D101214804FFF7ADFF00214FF4F1
:100BF0000030FFF7A8FF25E0F048844209D1012129
:100C00008804FFF7A0FF00214FF48020FFF79BFF2F
:100C100018E0EB48844209D10121C804FFF793FF93
:100C200000214FF40020FFF78EFF0BE0E5488442DF
:100C300008D101210805FFF786FF00214FF480103D
:100C4000FFF781FF10BD2DE9F04786B005460E463F
:100C50000024A24600BFA1460027B08900B100BF12
:100C60002F462C8A4CF6FF700440F08804432C82F7
:100C7000AC894EF6F3100440B0883189084371897D
:100C800008430443AC81AC8A4FF6FF400440B0896E
:100C90000443AC8201A8FFF7C2FEC648874202D1D6
:100CA000DDF810A001E0DDF80CA0A88900F40040F8
:100CB00040B10AEBCA0000EB0A1031684900B0FBF2
:100CC000F1F807E00AEBCA0000EB0A10316889006E
:100CD000B0FBF1F86420B8FBF0F0040120096421B6
:100CE00001FB1089A88900F4004040B1322000EBDC
:100CF000C900B0FBF1F000F00700044308E0322027
:100D000000EB09106421B0FBF1F000F00F00044388
:100D10002C8106B0BDE8F0874FF416510160002128
:100D20008180C18001810C21418100218181704736
:100D300010B502460020108A4FF2FF0318400B88BE
:100D40004C8823438C882343CC8823431843108248
:100D500010BD0021018041808180C180704721B198
:100D6000828942F40052828104E082894DF6FF7349
:100D70001A4082817047F0B5034600240026002502
:100D8000002040F66A17B94200D100BF1846C1F3EF
:100D9000421401F01F06012707FA06F5012C01D1C4
:100DA0000C3004E0022C01D1103000E014301AB1F4
:100DB00007682F43076002E00768AF430760F0BD94
:100DC0001AB1838A0B43838202E0838A8B43838236
:100DD0007047028A4FF6F0731A400282028A0A4371
:100DE0000282704782894FF2FF731A4082818289A2
:100DF0000A438281704721B1828942F002028281D6
:100E000004E082894FF6FD731A4082817047028A9E
:100E10004FF6DF731A400282028A0A430282704749
:100E200021B1028A42F48042028204E0028A4BF637
:100E3000FF731A4002827047C1F308028280704734
:100E400001468888C0F308007047818941F001019C
:100E500081817047028BD2B20283028B42EA012267
:100E600002837047028B02F47F420283028B0A43A3
:100E70000283704721B1828A42F02002828204E01C
:100E8000828A4FF6DF731A408282704721B1828ACC
:100E900042F01002828204E0828A4FF6EF731A4019
:100EA0008282704721B1828A42F00802828204E085
:100EB000828A4FF6F7731A408282704721B1828985
:100EC00042F40042828103E08289C2F30E028281F1
:100ED000704721B1828A42F40062828204E0828AF1
:100EE0004FF2FF731A4082827047828A4FF6FB737B
:100EF0001A408282828A0A438282704721B1828AA2
:100F000042F00202828204E0828A4FF6FD731A40A8
:100F10008282704702460020B1F5007F00D100BFF9
:100F200013880B400BB1012000E00020704701F452
:100F30000072B2F5007F00D100BFCA430280704743
:100F400070B50246002400230025002040F66A16F2
:100F5000B14200D100BFC1F3421501F01F030126C9
:100F600006FA03F3012D02D19689334006E0022DE3
:100F700002D1168A334001E0968A33400C120126D2
:100F800006FA04F41688344013B10CB1012000E0D5
:100F9000002070BD10B50022002340F66A14A14263
:100FA00000D100BF0A1201249440A3B2DC430480A4
:100FB00010BD0000003801400044004000480040DF
:100FC000004C00400050004001240125022629E089
:100FD0000121604800F0CDFA01280CD10023032242
:100FE00029465D48006802F0D7F90446012C02D179
:100FF0005AA003F0EDF84FF40051644800F0B9FA3C
:1010000001280CD10023032231466148006802F018
:10101000C3F90446012C02D15EA003F0D9F81420D4
:1010200001F0E4FBD4E708B5012413E04FF0FF33EF
:101030006A461946002002F064F90446012C03D1E7
:1010400060A0009903F0C4F86748006880F00100D0
:1010500065490860EAE708B5012413E04FF0FF3363
:101060006A461946002002F04CF90446012C03D1CF
:101070005EA0009903F0ACF85B48006880F02000A7
:1010800059490860EAE71CB5012402F072FE3248B3
:10109000022100230A02CDE900105DA1604801F0A1
:1010A00023F90446012C02D15EA003F091F83848E0
:1010B000032100234FF40072CDE9001061A16548BF
:1010C00001F012F90446012C02D163A003F080F86C
:1010D000694804210023CA01CDE9001067A16A48CC
:1010E00001F002F90446012C02D168A003F070F867
:1010F0006D48006801F046F902F05EFE1CBD10B5B7
:101100004FF44070FFF76EF900F016F900F057F950
:1011100000F014FA10BD1CB50124FFF7F0FF63A026
:1011200003F056F86CA003F053F85F480121002348
:101130004A02CDE9001072A1754801F0D5F80446C5
:10114000012C02D101F0FDFD02E04FF0FF301CBD8B
:1011500000BFFEE7000801402C00002052656365D7
:10116000697665315F5461736B5F48616E646C656D
:1011700020C8CECEF1CDA8D6AACFFBCFA2B7A2CBA6
:10118000CDB3C9B9A6210D0A00000000001001402E
:101190003000002052656365697665325F54617383
:1011A0006B5F48616E646C6520C8CECEF1CDA8D669
:1011B000AACFFBCFA2B7A2CBCDB3C9B9A6210D0A46
:1011C0000000000052656365697665325F546173A3
:1011D0006B20C8CECEF1CDA8D6AACFFBCFA2CEAA87
:1011E000202564200A0000000C0C01405265636554
:1011F000697665315F5461736B20C8CECEF1CDA89E
:10120000D6AACFFBCFA2CEAA202564200A000000D8
:1012100052656365697665315F5461736B000000E8
:1012200057100008B4B4BDA852656365697665318E
:101230005F5461736BC8CECEF1B3C9B9A6210D0A54
:101240000000000052656365697665325F54617322
:101250006B00000027100008B4B4BDA85265636598
:10126000697665325F5461736BC8CECEF1B3C9B98C
:10127000A6210D0A000000003400002053656E64B2
:101280005F5461736B000000C90F0008B4B4BDA8BF
:1012900053656E645F5461736BC8CECEF1B3C9B948
:1012A000A6210A0A0000000028000020D5E2CAC7D3
:1012B000D2BBB8F64672656552544F53C8CECEF1D4
:1012C000CDA8D6AAB4FACCE6CFFBCFA2B6D3C1D074
:1012D000CAB5D1E9A3A10A00B0B4CFC24B45593178
:1012E000BBF2D5DF4B455932BDF8D0D0C8CECEF1D8
:1012F000CFFBCFA2CDA8D6AAB7A2CBCD200A0000A3
:101300004170705461736B437265617465000000D5
:1013100087100008704700BFFEE700BFFEE700BF70
:10132000FEE700BFFEE7704710B501F0D2FE0128CE
:1013300001D002F059FD10BD08B501210820FFF7CA
:10134000DBFB2020ADF8000010208DF80300032007
:101350008DF8020069460F48FFF712F90120ADF839
:10136000000069460B48FFF70BF90220ADF80000BA
:1013700069460848FFF704F920210648FFF7ADF950
:1013800001210448FFF7A9F902210248FFF7A5F956
:1013900008BD0000000C014008B54FF4A060FFF745
:1013A00021F825208DF8000001208DF801008DF82E
:1013B00002008DF803006846FFF719F808BD00B574
:1013C00085B001210420FFF797FB01218803FFF777
:1013D00093FB4FF40070ADF8100018208DF8130047
:1013E00003208DF8120004A95248FFF7C9F84FF402
:1013F0008060ADF8100004208DF8130004A94D485A
:10140000FFF7BEF84FF4E13000900020ADF8040083
:10141000ADF80600ADF80800ADF80C000C20ADF8F2
:101420000A0069464448FFF70EFCFFF7B5FF0122AA
:1014300040F225514048FFF79EFC01213E48FFF74E
:101440008EFC05B000BD70B504460D462946204609
:10145000FFF7F2FC00BF80212046FFF75BFD00286C
:10146000F9D070BD2DE9F04107460D46164600241F
:1014700005E0295D3846FFF7E6FF601CC4B2B442C0
:10148000F7DB00BF40213846FFF744FD0028F9D0C4
:10149000BDE8F08170B506460C46002500BF615DD1
:1014A0003046FFF7D0FF6D1C605D0028F7D100BF0C
:1014B00040213046FFF72EFD0028F9D070BD2DE900
:1014C000F04105460C46260AE7B231462846FFF7AA
:1014D000B3FC00BF80212846FFF71CFD0028F9D08F
:1014E00039462846FFF7A8FC00BF80212846FFF7B1
:1014F00011FD0028F9D0BDE8F08170B504460D4615
:10150000E1B20D48FFF798FC00BF80210A48FFF7C1
:1015100001FD0028F9D0204670BD10B5044600BF7B
:1015200020210548FFF7F6FC0028F9D00248FFF714
:1015300087FC10BD000801400038014008B50121BA
:101540001420FFF7D9FA0120ADF8000004208DF82F
:10155000030069461148FFF713F84FF40050ADF847
:10156000000004208DF8030069460D48FFF708F8D5
:1015700008BD70B504460D4629462046FFF793F88E
:10158000012808D100BF29462046FFF78CF8012822
:10159000F9D0012070BD0020FCE7000000080140E8
:1015A0000010014000F1080141604FF0FF318160FF
:1015B00000F10801C1600161002101607047002154
:1015C0000161704742684A6093688B609368596014
:1015D0009160086103685B1C0360704710B50246A8
:1015E0000B685C1C0CB9106907E002F1080000E010
:1015F0004068446824689C42FAD944684C604C684E
:10160000A160886041600A611468641C146010BDA8
:1016100001460A69D1E901309860D1E901035860B7
:101620005068884201D188685060002008611068C5
:10163000401E10601068704770B505460E462C4677
:101640002CB940F21B12F8A1FEA002F0C1FD02F07D
:1016500090FBD4E90F12206801FB020060600020BB
:10166000A0632068A060E06B401E226C216800FB34
:101670000210E060FF2084F8440084F845009EB921
:10168000206908B9012000E00020A8B904F1100089
:1016900001F044FC80B14FF08050EE490860BFF388
:1016A0004F8FBFF36F8F07E004F11000FFF77AFF51
:1016B00004F12400FFF776FF02F07EFB012070BDED
:1016C0002DE9F04106460D4617469846069C0DB991
:1016D000246000E02760E663256401212046FFF7CF
:1016E000ABFFBDE8F0812DE9F84305460E46904674
:1016F0000DB1012000E0002028B94FF4C472CAA146
:10170000D0A002F065FD0EB9002701E005FB06F749
:1017100007F1480002F037FC044644B104F14809DF
:1017200043464A46314628460094FFF7C9FF204603
:10173000BDE8F88370B5044602F01BFB94F94550F0
:1017400010E0606A08B9012000E0002038B904F117
:10175000240001F0E3FB18B101F0B4FC00E003E069
:10176000681E45B2002DECDC00BFFF2084F8450068
:1017700002F022FB02F0FDFA94F9445010E02069D7
:1017800008B9012000E0002048B904F1100001F080
:10179000C5FB08B101F096FC681E45B200E001E00F
:1017A000002DECDC00BFFF2084F8440002F004FBB5
:1017B00070BD70B5054602F0DCFAA86BE96B884293
:1017C00001D1012400E0002402F0F6FA204670BDA9
:1017D0002DE9F04104460F4615464FF00008A66B70
:1017E000206C40B9206860BB606801F0D0FC804686
:1017F0000020606025E07DB93946226CA06802F0C7
:10180000ADFC216CA0680844A060D4E901108842B6
:1018100017D32068A06014E03946226CE06802F01B
:101820009DFC216CE068401AE0602168E068884215
:1018300003D2216C6068401AE060022D01D106B12C
:10184000761E701CA0634046BDE8F0812DE9FF4381
:1018500083B0064688461D464FF0000934462CB931
:1018600040F2DD2270A177A002F0B2FCB8F1000FC7
:1018700001D1206C08B9012000E0002028B940F215
:10188000DE2269A16FA002F0A3FC022D02D1E06B61
:10189000012801D1012000E0002028B940F2E12216
:1018A00061A168A002F094FC01F013FC08B905984E
:1018B00008B9012000E0002028B94FF439725AA17C
:1018C00060A002F085FC00BF02F053FAA06BE16B50
:1018D000884201D3022D28D12A4641462046FFF7EF
:1018E00077FF0746606A08B9012000E0002068B968
:1018F00004F1240001F012FB88B14FF080505549EB
:101900000860BFF34F8FBFF36F8F08E03FB14FF018
:10191000805050490860BFF34F8FBFF36F8F02F0C4
:101920004BFA012007B0BDE8F083059818B902F022
:1019300043FA0020F6E7B9F1000F04D101A801F045
:1019400071FB4FF0010902F037FA00F0EEFE02F0F1
:1019500010FA94F94400401C10B9002084F84400A7
:1019600094F94500401C10B9002084F8450002F0AD
:1019700023FA05A901A801F067FBF0B92046FFF79B
:1019800018FFA0B104F11000059901F069FA204692
:10199000FFF7D0FE00F01EFE002895D14FF08050DA
:1019A0002C490860BFF34F8FBFF36F8F8CE7204641
:1019B000FFF7C0FE00F00EFE86E72046FFF7BAFEF6
:1019C00000F008FE0020ADE710B504464CB1002041
:1019D00060602060E06000231A4619462046FFF749
:1019E00035FF10BD2DE9F0410446012600272246AF
:1019F00000210120FFF777FE05462846FFF7E4FFA8
:101A00002846BDE8F08170B5064634462CB940F250
:101A1000432205A10BA002F0DBFB01F057FB61683C
:101A2000884225D1E06817E02E2E5C2E2E5C46728F
:101A3000656552544F535C7372635C71756575656F
:101A40002E6300004572726F723A25732C25640D67
:101A50000A00000004ED00E0401EE060E06828B9E4
:101A600000231A4619462046FFF7F0FE012500E044
:101A70000025284670BD70B5054602F07AF9A86BBE
:101A800008B9012400E0002402F096F9204670BD58
:101A900070B504460D46206C70B1216CE0680844B6
:101AA000E0606168E068884201D32068E060284611
:101AB000226CE16802F052FB70BD2DE9FF4782B055
:101AC00005460E461F464FF0000A2C463CB940F230
:101AD000D642AFF2AC01AFF2940002F079FB0EB93E
:101AE000206C08B9012000E0002038B940F2D7424C
:101AF000AFF2CC01AFF2B40002F06AFB01F0E9FAF8
:101B000008B9049808B9012000E0002038B940F273
:101B1000DA42AFF2EC01AFF2D40002F059FB00BFA1
:101B200002F027F9D4F83890B9F1000F3DD0D4F87D
:101B30000C8031462046FFF7ABFFDFB9A9F1010069
:101B4000A063206810B901F099FB6060206908B9B2
:101B5000012000E0002010BB04F1100001F0DEF9CC
:101B6000E8B14FF08050FA490860BFF34F8FBFF3E0
:101B70006F8F14E0C4F80C80606A08B9012000E09F
:101B8000002060B904F1240001F0C8F938B14FF029
:101B90008050EF490860BFF34F8FBFF36F8F02F0A3
:101BA0000BF9012006B0BDE8F087049818B902F0DF
:101BB00003F90020F6E7BAF1000F04D1684601F0FE
:101BC00031FA4FF0010A02F0F7F800F0AEFD02F032
:101BD000D0F894F94400401C10B9002084F8440067
:101BE00094F94500401C10B9002084F8450002F02B
:101BF000E3F804A9684601F027FA40BB2046FFF746
:101C00003AFFF0B1206830B902F0B3F8606801F033
:101C10006CFA02F0D1F804F12400049901F020F9E3
:101C20002046FFF787FD00F0D5FC00287FF478AF51
:101C30004FF08050C6490860BFF34F8FBFF36F8FDE
:101C40006EE72046FFF776FD00F0C4FC68E720460B
:101C5000FFF770FD00F0BEFC2046FFF70CFF0028E8
:101C6000EED000209EE72DE9F04106460F463446AF
:101C70003CB940F27B22AFF25021AFF2382002F0A3
:101C8000A7FA01F023FA6168884204D1E068401C99
:101C9000E06001250AE000233A4619462046FFF796
:101CA0000CFF054615B1E068401CE0602846BDE821
:101CB000F0812DE9F05F07468A4690461E463C4675
:101CC0003CB940F29932AFF2A021AFF2882002F085
:101CD0007FFABAF1000F01D1206C08B9012000E0B1
:101CE000002038B940F29A32AFF2C421AFF2AC20F2
:101CF00002F06EFA022E02D1E06B012801D1012020
:101D000000E0002038B940F29B32AFF2E421AFF29C
:101D1000CC2002F05DFA02F07FF800BF5021EFF313
:101D2000118081F31188BFF34F8FBFF36F8F00BF16
:101D30000546A06BE16B884201D3022E23D194F9B2
:101D400045B0324651462046FFF742FD0BF10100F7
:101D500088B9606A08B9012000E0002080B904F168
:101D6000240001F0DBF858B1B8F1000F08D00120D1
:101D7000C8F8000004E00BF1010040B284F845000F
:101D80004FF0010901E04FF0000900BF85F3118811
:101D900000BF4846BDE8F09F2DE9F04706460F46D4
:101DA00034463CB940F23642AFF28431AFF26C3087
:101DB00002F00EFA206C08B9012000E0002038B9CA
:101DC00040F23A42AFF2A031AFF2883002F000FAAE
:101DD000206808B9606808B9012000E0002038B91F
:101DE00040F23F42AFF2C031AFF2A83002F0F0F95A
:101DF00002F012F800BF5021EFF3118081F3118837
:101E0000BFF34F8FBFF36F8F00BF0546D4F83890F4
:101E1000E06B48451ED994F945A009F10100A06383
:101E20000AF1010070B9606A08B9012000E00020E1
:101E300068B904F1240001F071F840B13FB101200C
:101E4000386004E00AF1010040B284F845004FF028
:101E5000010801E04FF0000800BF85F3118800BFC2
:101E60004046BDE8F0872DE9F05F064689461746F3
:101E700034463CB940F29452AFF25441AFF23C4088
:101E800002F0A6F9B9F1000F01D1206C08B90120C8
:101E900000E0002038B940F29552AFF27441AFF241
:101EA0005C4002F095F901F0B7FF00BF5021EFF35D
:101EB000118081F31188BFF34F8FBFF36F8F00BF85
:101EC0000546D4F838A0BAF1000F22D094F944B0F6
:101ED00049462046FFF7DCFDAAF10100A0630BF1A3
:101EE000010070B9206908B9012000E0002068B93C
:101EF00004F1100001F012F840B13FB10120386048
:101F000004E00BF1010040B284F844004FF00108F6
:101F100001E04FF0000800BF85F3118800BF404684
:101F2000BDE8F09F2DE9F0470646884634463CB9A7
:101F30004FF4BE62AFF21051AFF2F84002F048F930
:101F4000B8F1000F01D1206C20B9012003E000009E
:101F500004ED00E0002038B940F2F152AFF2385100
:101F6000AFF2205002F034F9206C08B1012000E0FB
:101F7000002038B940F2F252AFF25451AFF23C5067
:101F800002F026F901F048FF00BF5021EFF3118065
:101F900081F31188BFF34F8FBFF36F8F00BF0546EA
:101FA000A06B48B1D4F80C9041462046FFF770FD75
:101FB000C4F80C90012700E0002700BF85F31188CA
:101FC00000BF3846BDE8F08770B504463CB940F222
:101FD0002362AFF2AC51AFF2945002F0F9F801F085
:101FE000C8FEA56B01F0E8FE284670BD70B504463A
:101FF00025463DB940F23562AFF2D451AFF2BC5044
:1020000002F0E6F801F0B5FED5E90E10461A01F02F
:10201000D3FE304670BD70B504463CB940F245620F
:10202000AFF2FC51AFF2E45002F0D2F8A56B2846B3
:1020300070BD014600200EE04B4A02EBC002526820
:102040008A4207D10022484B43F8302003EBC003FB
:102050005A6002E0401C0A28EED300BF704770B5FA
:10206000044625463DB940F25162AFF24461AFF2F9
:102070002C6002F0ADF82846FFF7DBFF284602F09F
:1020800004F870BD70B505463DB94FF4F162AFF28A
:102090006861AFF2506002F09BF8A86B08B90124A8
:1020A00000E00024204670BD70B504463CB940F203
:1020B000AF72AFF28C61AFF2746002F089F8A06B7E
:1020C000E16B884201D1012500E00025284670BD62
:1020D000024600200BE0244B53F8303033B9224B3A
:1020E00043F8301003EBC0035A6002E0401C0A289A
:1020F000F1D300BF70470246002000210AE01A4BCE
:1021000003EBC1035B68934203D1174B53F83100D3
:1021100002E0491C0A29F2D300BF70472DE9F041C3
:1021200005460E4617462C4601F023FE94F944005E
:10213000401C10B9002084F8440094F94500401C6C
:1021400010B9002084F8450001F036FEA06B28B9D4
:102150003A46314604F1240000F0C5FE2046FFF760
:10216000E9FABDE8F0810000B000002010B50024BD
:1021700007E004EB8401F74A02EB8100FFF712FA53
:10218000641C202CF5D3F448FFF70CFAF348FFF752
:1021900009FAF348FFF706FAF248FFF703FAF248A4
:1021A000FFF700FAEC48F1490860EC48F049086094
:1021B00010BD10B5044601F0DCFDEE480068401C7F
:1021C000EC490860EC48006840B9EB4804600846F8
:1021D000006801280DD1FFF7C9FF0AE0E748006851
:1021E00038B9E5480068C06AE16A884201D8E24827
:1021F0000460E3480068401CE149086094F82C1032
:1022000001208840DF4909680843DE490860E16A27
:1022100001EB8101CF4A02EB8100211DFFF7D2F9CA
:1022200001F0CAFDD548006868B1D3480068C06AAB
:10223000E16A884207D24FF08050D3490860BFF36B
:102240004F8FBFF36F8F10BD2DE9FF5F81460F46A3
:102250009246DDE90E6B109CAAF10100216B01EBA7
:10226000800828F0070808F0070008B9012000E0FE
:10227000002028B940F22B32C4A1CBA001F0A8FF66
:10228000002507E0795D04F134004155785D00B91F
:1022900002E06D1C102DF5D300BF00214320015535
:1022A000202E00D31F26E66266640020A064201D55
:1022B000FFF785F904F11800FFF781F92461C6F1F1
:1022C0002000A06164620020E06484F85000494668
:1022D0004046039A01F0DAFC2060BBF1000F01D008
:1022E000CBF80040BDE8FF9F2DE9FF4F85B0804649
:1022F00089461746DDE912ABB80001F044FE0646F8
:1023000056B1542001F03FFE04460CB1266304E0B0
:10231000304601F0BAFE00E000247CB10020CDE997
:1023200000ABCDE902403A4649464046089BFFF7DC
:102330008BFF2046FFF73DFF012501E04FF0FF3501
:10234000284609B0BDE8F08F88490968096809B9CD
:10235000012100E0002121B14FF0FF31964A1160C8
:1023600006E082490968C968C868934A41681160F3
:10237000704710B50446206B01F087FE204601F03F
:1023800084FE10BD70B5054601F0F3FC15B97A481E
:10239000006800E028460446201DFFF739F978B9A7
:1023A000E06A00EB80006B4951F8200040B994F8D6
:1023B0002C100120884073490968814371480160ED
:1023C000A06A18B104F11800FFF722F96C48006800
:1023D000401C6B49086068480068844209D1211D8F
:1023E0006048FFF7EFF875480068401C73490860C3
:1023F00009E060480068401E5E4908602046FFF71B
:10240000B8FFFFF7A1FF01F0D7FC5C480068C0B13E
:1024100059480068844214D16948006808B901200D
:1024200000E0002028B94FF48C6258A15EA001F0B2
:10243000CFFE4FF0805054490860BFF34F8FBFF379
:102440006F8F70BD2DE9F0414FF000085C480068C7
:10245000002872D15B480068451C5A480560EDB9F8
:1024600042480068006808B9012000E0002028B94F
:1024700040F6CB1245A14CA001F0AAFE3B480768EC
:102480003B48006839490860394807604E48006891
:10249000401C4D490860FFF757FF00BF46480068E1
:1024A00085423CD300BF31480068006808B901206C
:1024B00000E0002020B14FF0FF303F4908602DE0E0
:1024C0002A480068C068C4686668B54202D23A48C3
:1024D000066023E0201DFFF79BF8A06A18B104F105
:1024E0001800FFF795F894F82C1001208840254932
:1024F0000968084323490860E16A01EB8101154A34
:1025000002EB8100211DFFF75DF81B49E06A0968B5
:10251000C96A8842C7D34FF00108C4E700BF164814
:102520000068C06A00EB80000A4951F820000128C9
:1025300001D94FF0010805E0FFE724480068401C7E
:10254000224908602248006808B14FF0010840465F
:10255000BDE8F081000100208003002094030020EA
:10256000A8030020BC030020D00300203C00002072
:1025700040000020480000203800002054000020C7
:10258000640000205000002004ED00E02E2E5C2EA0
:102590002E5C4672656552544F535C7372635C7473
:1025A00061736B732E6300004572726F723A25730C
:1025B0002C25640D0A000000680000204400002063
:1025C000700000204C000020600000205800002017
:1025D0005C00002070B500240026FE48006838B971
:1025E00040F2D972AFF25C01AFF2440001F0F0FDAD
:1025F00001F0BFFBF7480068401EF6490860084636
:10260000006800284FD1F448006800284BD024E02F
:10261000F248C068C46804F11800FEF7F9FF201DF5
:10262000FEF7F6FF94F82C1001208840EC49096869
:102630000843EB490860E16A01EB8101E94A02EBDA
:102640008100211DFEF7BEFFE749E06A0968C96AFB
:10265000884202D30120E5490860E048006808B9D3
:10266000012000E000200028D2D00CB1FFF76CFE62
:10267000DF48056865B100BFFFF7E4FE10B1012037
:10268000DA4908606D1E002DF6D10020D849086097
:10269000D648006838B101263007D6490860BFF334
:1026A0004F8FBFF36F8F01F087FB304670BD2DE970
:1026B000F04105460E46D0480768CB480068001D2B
:1026C000FEF7A6FF50B9C848006890F82C1001200A
:1026D0008840C34909688143C1480160681C38B912
:1026E00036B1C1480168091DC448FEF76BFF1AE006
:1026F0007C19BD4800684460BC4207D2BA480168F2
:10270000091DBF480068FEF769FF0CE0B648016884
:10271000091DBC480068FEF761FFBB4800688442A1
:1027200001D2B9480460BDE8F081AA480068401CA5
:10273000A849086070472DE9F04704460F464FF05E
:1027400000093CB94FF48F62AFF2C011AFF2A8108C
:1027500001F03EFD0FB1012000E0002038B940F249
:102760007942AFF2D811AFF2C01001F031FD9948B3
:10277000006808B9012000E0002038B940F27A4230
:10278000AFF2F811AFF2E01001F022FDFFF7CDFF3C
:10279000994806682068C5192068B04207D92068A2
:1027A000A8420BD9B54209D94FF0010906E02068CB
:1027B000A84201D8B54201D94FF001092560B9F10D
:1027C000000F03D0A81B0021FFF771FFFFF702FFE6
:1027D0008046B8F1000F07D14FF08050854908605E
:1027E000BFF34F8FBFF36F8FBDE8F08770B504461E
:1027F0000025BCB17748006808B9012000E000203E
:1028000038B940F2CB42AFF27C21AFF2642001F044
:10281000DFFCFFF78AFF00212046FFF748FFFFF7A4
:10282000D9FE05463DB94FF0805072490860BFF3AC
:102830004F8FBFF36F8F70BD2DE9F04107463E46C5
:102840003EB940F2F742AFF2BC21AFF2A42001F052
:10285000BFFC65480068864201D100241EE001F0FB
:1028600088FA756901F0A8FA66480068854203D0C5
:1028700063480068854201D102240FE05F48854229
:1028800005D1B06A08B9032408E0022406E05F48D5
:10289000854200D00DB9042400E001242046BDE8A3
:1028A000F08170B5044601F064FA14B94E4800682E
:1028B00000E020460646F56A01F07EFA284670BD23
:1028C0002DE9F041054601F0A7FA00BF5021EFF3D2
:1028D000118081F31188BFF34F8FBFF36F8F00BF5B
:1028E000044615B94048006800E028460746FE6ADD
:1028F00000BF84F3118800BF3046BDE8F0812DE9A8
:10290000F04780460D464FF00009202D01D20120EE
:1029100000E0002038B940F27C52AFF29031AFF2C3
:10292000783001F055FC202D00D31F2501F021FA4D
:10293000B8F1000F02D12C48006800E04046044680
:10294000666CAE4277D0B5420BD927480068844206
:102950000DD025480068C06AA84208D84FF0010988
:1029600005E021480068844201D14FF00109E76A7F
:10297000E16A606C884200D1E5626564A06900F09C
:10298000004010B9C5F12000A06107EB8701154A8E
:1029900002EB81016069884201D1012000E0002042
:1029A000B0B3201DFEF734FE30B90120B8400C4909
:1029B000096881430A48016094F82C10012088407E
:1029C00007490968084306490860E16A01EB81018B
:1029D000044A1FE07000002048000020A8030020E7
:1029E0005000002000010020380000205C00002082
:1029F0005800002004ED00E04C000020D00300202F
:102A0000400000203C00002068000020BC030020A3
:102A100005E010E002EB8100211DFEF7D3FDB9F1C6
:102A2000000F07D04FF08050FB490860BFF34F8F75
:102A3000BFF36F8F00BF01F0BFF9BDE8F08710B59D
:102A4000F648006818B10120F54908602FE0002021
:102A5000F3490860F3480068B0FA80F0C0F11F0441
:102A600004EB8400F04951F8200008B1012000E097
:102A7000002038B940F6E822AFF2F041AFF2D8407A
:102A800001F0A6FB04EB8401E74A02EB81004168F8
:102A90004968416000F1080142688A4202D14168F8
:102AA000496841604168C968E04A116000BF10BDD3
:102AB00070B5054601F05DF915B9DC48006800E025
:102AC00028460446201DFEF7A3FD78B9E06A00EB16
:102AD0008000D54951F8200040B994F82C1001200D
:102AE0008840D04909688143CE480160A06A18B186
:102AF00004F11800FEF78CFD211DCD48FEF762FDA4
:102B000001F05AF9CB48006828B101F032F9FFF71B
:102B10001BFC01F051F9C5480068844226D1C54824
:102B20000068B8B1BD48006808B9012000E0002085
:102B300038B940F25162AFF2AC51AFF2945001F0AB
:102B400047FB4FF08050B4490860BFF34F8FBFF38D
:102B50006F8F0BE0B6480068B7490968884203D117
:102B60000020B249086001E0FFF769FF70BD70B551
:102B7000054600262C463DB940F27662AFF2F4518C
:102B8000AFF2DC5001F024FBA9496069884201D111
:102B9000012000E0002070B1A849A06A884201D15C
:102BA000012000E0002030B9A06A08B9012000E04F
:102BB000002000B10126304670BD70B505462C4698
:102BC0003DB94FF4D462AFF23C61AFF2246001F042
:102BD000FFFA74B39548006884422AD001F0C9F81E
:102BE0002046FFF7C4FF10B3201DFEF711FD94F837
:102BF0002C10012088408B490968084389490860E6
:102C0000E16A01EB8101884A02EB8100211DFEF798
:102C1000D9FC8649E06A0968C96A884207D34FF03F
:102C200080507D490860BFF34F8FBFF36F8F01F075
:102C3000C3F870BD2DE9F0410646002734463EB981
:102C400040F2D562AFF2BC61AFF2A46001F0C0FA0D
:102C500001F0E2F800BF5021EFF3118081F31188F9
:102C6000BFF34F8FBFF36F8F00BF05462046FFF7BE
:102C70007EFF20B369480068E0B96C49E06A0968E2
:102C8000C96A884200D30127201DFEF7C1FC94F8D1
:102C90002C10012088406349096808436149086095
:102CA000E16A01EB8101604A02EB8100211DFEF720
:102CB00089FC04E004F118016048FEF783FC00BFC2
:102CC00085F3118800BF3846BDE8F08170B523E078
:102CD000FFF72BFD5A48006808B9012000E00020EA
:102CE0000546FFF777FCBDB901F043F85448C068CA
:102CF000C468201DFEF78CFC4F480068401E4E49FA
:102D0000086050480068401E4E49086001F054F8C1
:102D10002046FFF72EFB00BF4A4800680028D7D1A5
:102D200070BD00BFFFF7D2FF3F4800680128F9D906
:102D30004FF0805038490860BFF34F8FBFF36F8F5B
:102D4000F0E71CB5404800210B468022CDE9001079
:102D50003EA14048FFF7C8FA0446012C02D100F01A
:102D600076FE0446012C15D100BF502080F3118857
:102D7000BFF34F8FBFF36F8F00BF4FF0FF30364967
:102D8000086001202B49086000203449086000F0E9
:102D900099FF0DE0601C08B1012000E0002038B967
:102DA0004FF4EF62AFF61C01AFF6040001F010FA29
:102DB0001CBD10B500BF502080F31188BFF34F8FAA
:102DC000BFF36F8F00BF00201A49086000F0C0FFFA
:102DD00010BD22490868704770B501F01DF8002544
:102DE0001E480468204670BD13480068704770B5DF
:102DF000044614B90D48006800E0204605463DB978
:102E000040F67E02AFF67C01AFF6640001F0E0F917
:102E100005F1340070BD000004ED00E070000020FA
:102E20005C0000205000002000010020380000203D
:102E3000D00300205400002048000020A8030020F8
:102E4000BC030020440000206C00002049444C4595
:102E500000000000232D0008680000204C00002026
:102E600070B504460D463CB940F6F822AFF6E401D1
:102E7000AFF6CC0001F0ACF9F748016818312046F4
:102E8000FEF7ACFB01212846FFF711FC70BD70B5C1
:102E900004460D4616463CB940F60932AFF6141109
:102EA000AFF6FC0001F094F9EC48006808B101208D
:102EB00000E0002038B940F60C32AFF63011AFF622
:102EC000181001F085F945F00040E3490968886170
:102ED000E148016818312046FEF774FB01213046B5
:102EE000FFF7E5FB70BD70B505460E4614463DB9CB
:102EF00040F62232AFF66C11AFF6541001F068F9CB
:102F0000D548016818312846FEF75CFB0CB14FF03C
:102F1000FF3621463046FFF7CAFB70BD70B5064646
:102F2000F068C4683CB940F65232AFF6A011AFF673
:102F3000881001F04DF904F11800FEF769FBC7484D
:102F40000068A8B9201DFEF763FB94F82C1001203F
:102F50008840C34909680843C1490860E16A01EB38
:102F60008101C04A02EB8100211DFEF72BFB04E02A
:102F700004F11801BC48FEF725FBB749E06A09686F
:102F8000C96A884204D901250120B849086000E0D7
:102F90000025284670BD2DE9F04105460F46AF4893
:102FA000006808B1012000E0002038B940F68932FD
:102FB000AFF62821AFF6102001F00AF947F00040E3
:102FC0002860EC683CB940F69132AFF64021AFF68C
:102FD000282001F0FDF82846FEF71AFB201DFEF719
:102FE00017FB94F82C10012088409D49096808437C
:102FF0009B490860E16A01EB81019A4A02EB81007A
:10300000211DFEF7DFFA9449E06A0968C96A88421F
:1030100004D9012601209549086000E000263046C9
:10302000BDE8F08110B504463CB940F6B132AFF6C8
:10303000A421AFF68C2001F0CBF88D480068206009
:103040008C480068606010BD2DE9F04104460D46D3
:103050003CB940F6BB32AFF6CC21AFF6B42001F05C
:10306000B7F83DB940F6BC32AFF6E021AFF6C82064
:1030700001F0AEF800F07DFE7E4807682868401C2D
:1030800008B9002619E07A4920680968884204D006
:103090006068B84201D801260FE06068381A2968D4
:1030A000884209D228686168791A401A2860204647
:1030B000FFF7B8FF002600E0012600F07DFE304655
:1030C000BDE8F081012069490860704762490868DD
:1030D00070476949096809B9012005E05F49096835
:1030E00009B9022000E00020704770B505462C4663
:1030F000002D4BD05849E06A0968C96A884245D218
:10310000A06900F0004028B953480068C06AC0F1C7
:103110002000A061E16A01EB8101524A02EB8101CA
:103120006069884201D1012000E0002050B3201DD9
:10313000FEF76EFA78B9E06A00EB8000494951F871
:10314000200040B994F82C100120884044490968B7
:1031500081434348016040480068C06AE06294F8D7
:103160002C10012088403E49096808433C4908600A
:10317000E16A01EB81013B4A02EB8100211DFEF770
:1031800021FA03E034480068C06AE06270BD70B59F
:1031900005462C460026002D4FD02F48006884425B
:1031A00001D1012000E0002038B940F6B362AFF64B
:1031B0002441AFF60C4001F00BF8A06C38B940F692
:1031C000B562AFF63841AFF6204001F001F8A06CCF
:1031D000401EA064616CE06A88422ED0A06C60BB87
:1031E000201DFEF715FA78B9E06A00EB80001D4952
:1031F00051F8200040B994F82C100120884018495B
:103200000968814316480160606CE062E06AC0F1C1
:103210002000A06194F82C10012088401049096812
:1032200008430F490860E16A01EB81010D4A02EB96
:103230008100211DFEF7C6F90126304670BD064902
:103240000968886904490968C96AC1F12001024A0C
:103250001268916170470000380000207000002063
:103260005000002000010020A80300205C00002086
:10327000600000204C00002054000020F948006845
:1032800030B1F849096801F14800896C491C0160B6
:10329000F4480068704770B506460D4600F069FDB9
:1032A000F0480068C06C88B90120EE49096881F8CF
:1032B00050005DB101212846FFF7F9F94FF0805029
:1032C000E9490860BFF34F8FBFF36F8F00F074FDC3
:1032D00000F04FFDE3480068C46C4CB126B10020FB
:1032E000E0490968C86403E0601EDE490968C864F3
:1032F0000020DC49096881F8500000F05DFD20469F
:1033000070BD2DE9F0410746884614461D4600F081
:1033100030FDD448006890F85000022818D0D149F8
:10332000096801F14C00C96CB94301600120CD4925
:10333000096881F850005DB101212846FFF7B7F90F
:103340004FF08050C8490860BFF34F8FBFF36F8FB5
:1033500000F032FD00F00DFD1CB1C2480068C06CE9
:103360002060C048006890F85000012801D1002674
:1033700008E0BC49096801F14C00C96C21EA080168
:10338000016001260020B749096881F8500000F06B
:1033900013FD3046BDE8F0812DE9F04706460D46A5
:1033A000174698464FF0010A3EB941F2E102AFF6E6
:1033B0002461AFF60C6000F00BFF344600F0D9FC3E
:1033C000B8F1000F02D0E06CC8F8000094F85090FB
:1033D000022084F85000052F17D2DFE807F015030C
:1033E000070B0D00E06C2843E0640EE0E06C401C2D
:1033F000E0640AE0E56408E0B9F1020F01D0E56499
:1034000001E04FF0000A00E000BF00BFB9F1010F7A
:1034100030D1201DFEF7FCF894F82C1001208840D4
:1034200092490968084391490860E16A01EB81010A
:103430008F4A02EB8100211DFEF7C4F8A06A08B98B
:10344000012000E0002038B941F21712AFF6C46144
:10345000AFF6AC6000F0BCFE8249E06A0968C96A58
:10346000884207D94FF080507F490860BFF34F8FE3
:10347000BFF36F8F00F0A0FC5046BDE8F0872DE948
:10348000F84F07460E4690469946DDF828B00120D1
:1034900000903FB941F24A12AFF61071AFF6F860F2
:1034A00000F096FE00F0B8FC3C4600BF5021EFF360
:1034B000118081F31188BFF34F8FBFF36F8F00BF6F
:1034C0000546B9F1000F02D0E06CC9F8000094F88D
:1034D00050A0022084F85000B8F1050F17D2DFE8A1
:1034E00008F01503070B0D00E06C3043E0640EE0BC
:1034F000E06C401CE0640AE0E66408E0BAF1020F08
:1035000001D0E66401E00020009000E000BF00BFB1
:10351000BAF1010F3BD1A06A08B9012000E00020F8
:1035200038B941F29112AFF69C71AFF6847000F099
:103530004FFE50480068A8B9201DFEF769F894F8BE
:103540002C10012088404949096808434749086010
:10355000E16A01EB8101464A02EB8100211DFEF781
:1035600031F804E004F118014348FEF72BF83D4917
:10357000E06A0968C96A884209D9BBF1000F03D023
:103580000120CBF8000002E001203C49086000BFA8
:1035900085F3118800BF0098BDE8F88F2DE9F04150
:1035A00005460F4635B941F2C512354901F11C00F7
:1035B00000F00EFE00F030FC2C4600BF5021EFF36F
:1035C000118081F31188BFF34F8FBFF36F8F00BF5E
:1035D000064694F85080022084F85000E06C401CAD
:1035E000E064B8F1010F37D1A06A08B9012000E00A
:1035F000002030B941F2EB12214901F11C0000F02A
:10360000E7FD1C480068A8B9201DFEF701F894F8F2
:103610002C100120884015490968084313490860A7
:10362000E16A01EB8101124A02EB8100211DFDF7E5
:10363000C9FF04E004F118010F48FDF7C3FF094971
:10364000E06A0968C96A884206D917B10120386062
:1036500002E001200949086000BF86F3118800BF1D
:10366000BDE8F0813800002004ED00E050000020AB
:103670000001002070000020A80300205C00002052
:103680008C25000870B5054615B90A48006800E0A9
:103690002846064600F06DFB96F85000022804D13B
:1036A000002086F85000012400E0002400F084FB94
:1036B000204670BD380000202DE9F04104460D463B
:1036C00016461F464FF0000865602461B5420CD8CD
:1036D000F01BA169884202D34FF0010811E0211DBF
:1036E000FA480068FDF77AFF0BE0BE4204D2BD4203
:1036F00002D34FF0010804E0211DF5480068FDF7F2
:103700006DFF4046BDE8F0812DE9FE4304460D46BD
:1037100016461F46DDF828804FF000092CB940F20C
:10372000A512ECA1F2A000F053FDF548006810B31B
:10373000009501960294062D15DAFFF7CAFC0228BF
:1037400008D1002342466946ED480068FEF77EF83E
:10375000814610E000231A466946E9480068FEF7F2
:1037600075F8814607E000233A466946E448006858
:10377000FEF79FFA81464846BDE8FE832DE9F843EF
:103780002DE0D3480068C0680568D1480068C0686B
:10379000C468201DFDF73CFF2046616A8847E06948
:1037A00001281CD1A0694619AE4207D96660246180
:1037B000211DC7480068FDF711FF10E000200346F7
:1037C0002A46014600902046FFF79EFF07462FB984
:1037D00040F26E32BFA1C6A000F0FAFC00BFBC48A8
:1037E0000068006808B9012000E000200028C8D067
:1037F000B748D0F80080B5480068B5490860B348BC
:10380000C0F80080BDE8F88370B50446FFF7E1FA20
:103810000546BC480068854204D2FFF7AFFF01208F
:10382000206001E000202060B6480560284670BD99
:1038300070B586B060E0039800285DDB059C606988
:1038400008B9012000E0002010B9201DFDF7E0FEBE
:1038500002A8FFF7D9FF054603980A284AD2DFE8F5
:1038600000F00905072C2E4506082D2F00BF00BFCC
:1038700000BF00BF0498A269811803462A4620466B
:10388000FFF71AFFC0B12046616A8847E069012846
:1038900012D1002000900498A16942180023194613
:1038A0002046FFF731FF06462EB940F2053289A1C6
:1038B0008FA000F08DFC00BF1DE000BF1BE000BF2B
:1038C0000498A061A06908B1012000E0002028B997
:1038D0004FF447727FA186A000F07AFCA0694119DD
:1038E0002B462A462046FFF7E7FE04E0204600F07C
:1038F000CCFB00E000BF00BF00231A4603A98048AC
:103900000068FEF7DAF8002895D106B070BDF8B56A
:1039100005460F466E480068C068C468201DFDF764
:1039200077FEE069012818D1A06941192B463A4673
:103930002046FFF7C1FE80B1002003462A4601461B
:1039400000902046FFF7E0FE06462EB940F2FD1239
:1039500060A167A000F03CFC00BF2046616A884778
:10396000F8BDF8B505460C46FEF7DFFE6846FFF7E2
:103970004BFF0646009820BB44B9B54206D8FEF777
:1039800029FE31462846FFF7C2FF1CE03CB14F48F4
:103990000068006808B9012000E000200446A91B67
:1039A000224657480068FEF7B9FBFEF713FE50B9F0
:1039B0004FF0805054490860BFF34F8FBFF36F8FB3
:1039C00001E0FEF707FEF8BD0146414A12681268A1
:1039D0000AB9012200E000220A600A6822B93C4AC2
:1039E0001268D268106800E00020704708B500BF78
:1039F0006846FFF7E9FF044620460099FFF7B1FF4C
:103A0000FFF716FFF4E710B500F0B3F93C48006883
:103A1000D0B93E48FDF7C6FD3D48FDF7C3FD3B4824
:103A20002B4908603A482949086000220C210A20E5
:103A3000FDF759FE324908600846006820B135A1FB
:103A40002F480068FEF744FB00F0B6F910BD1CB526
:103A50000024FFF7D8FF2A48006858B12F481F21DB
:103A600000234FF48072CDE900102DA12E48FEF7FF
:103A70003BFC04462CB940F2311216A11CA000F008
:103A8000A7FB20461CBD2DE9F04706460D4617460C
:103A90009846DDE908940DB1012000E0002028B926
:103AA0004FF4C6720BA112A000F092FB5CB1FFF7BD
:103AB000AAFF2660A561E761C4F82080C4F82490BD
:103AC000201DFDF77CFDBDE8F08700007800002098
:103AD000740000202E2E5C2E2E5C467265655254BA
:103AE0004F535C7372635C74696D6572732E63000F
:103AF0004572726F723A25732C25640D0A0000001E
:103B00007C0000208400002004ED00E0E40300209D
:103B1000F8030020546D7251000000008000002066
:103B2000546D722053766300ED3900082DE9FC478F
:103B300005460E4617469846DDF82890282000F0E6
:103B400022FA04463CB143463A4631462846CDE97E
:103B50000094FFF798FF2046BDE8FC8710B53E486B
:103B6000006808B1012000E0002038B940F2CB1213
:103B7000AFF2A001AFF2880000F02AFB36480068DF
:103B800010BD70B5044625463CB94FF4EA72AFF259
:103B9000BC01AFF2A40000F01BFBA86970BD70B5BA
:103BA000044625463CB94FF4EF72AFF2D801AFF2AC
:103BB000C00000F00DFB6E68304670BD70B5044665
:103BC00025463CB94FF4F472AFF2F801AFF2E000D1
:103BD00000F0FEFA286870BD70B5044626463CB970
:103BE00040F2B332AFF21411AFF2FC0000F0F0FA81
:103BF00000F0BFF8706908B9012000E0002080F0F3
:103C0000010500F0D9F8284670BD70B50446264677
:103C10003CB94FF47272AFF24411AFF22C1000F0C5
:103C2000D7FA00F0A6F8356A00F0C6F8284670BD4D
:103C300070B504460D4626463CB94FF47672AFF295
:103C40006C11AFF2541000F0C3FA00F092F8356234
:103C500000F0B2F870BD00008000002084480068C9
:103C6000401C08B9012000E0002020B9F42281A105
:103C70008AA000F0ADFA00BF502080F31188BFF396
:103C80004F8FBFF36F8F00BF00BFFEE7001F4FF0E5
:103C900080730360001F21F001030360001F834B4A
:103CA00003601438026020387047814800684FF480
:103CB0007A71B0FBF1F0401E4FF0E021486107201F
:103CC000086170471CB57B48014609780191FF21C6
:103CD000024611700146097800919DF8001001F02C
:103CE0005001754A11700721744A116009E0734947
:103CF0000968491E714A11609DF800104906090EB5
:103D000000919DF8001001F080018029EFD06B49EF
:103D100009680902694A11601146098801F4E061E5
:103D20001160644A019911706548006840F47000A0
:103D3000634908600846006840F070400860FFF77B
:103D4000B4FF00204A490860FCF710FA00201CBDAF
:103D500010B547480068B0F57A7F01D1012000E036
:103D6000002028B94FF4B57242A14CA000F030FAFF
:103D700010BD10B500BF502080F31188BFF34F8FE6
:103D8000BFF36F8F00BF3A480068401C3849086095
:103D90000846006801280ED149481C380068C0B2A6
:103DA00008B9012000E0002028B94FF4BD7231A10C
:103DB0003AA000F00DFA10BD10B52D48006828B9E2
:103DC00040F281122BA135A000F002FA28480068C9
:103DD000401E274908600846006820B9002080F38B
:103DE000118800BF00BF10BD10B500BF502080F388
:103DF0001188BFF34F8FBFF36F8F00BFFEF722FB19
:103E000020B14FF080502E491C39086000BF0020BF
:103E100080F3118800BF10BD70B5FCF7DDF90546D1
:103E2000102D11D305F1E02090F8F04322480078DE
:103E3000844201DB012000E0002028B94FF42A72FF
:103E40000CA116A000F0C4F91D481438006800F455
:103E5000E0601A490968884201D8012000E000208A
:103E600028B94FF42E7203A10CA000F0B1F970BD77
:103E7000880000202E2E5C2E2E5C46726565525402
:103E80004F535C706F72745C525644535C41524D98
:103E90005F434D335C706F72742E63004572726FB6
:103EA000723A25732C25640D0A0000005D3C000861
:103EB0000000002000E400E08C00002090000020C2
:103EC00020ED00E010B50146904800E0006803686E
:103ED0008B42FBD30246436813448B4204D14368B0
:103EE0004C682344436001460A464B681344046807
:103EF000A34211D1864C03682468A34208D04B68C2
:103F00000468646823444B6003681B680B6005E029
:103F10007F4B1B680B6001E003680B60884200D098
:103F2000016010BD30B54FF410437A4800F007042B
:103F30002CB1C01D20F00700764C041B1B1B024651
:103F4000724C22600024714D6C60D018083820F04B
:103F500007006F4C206000246D4D2D686C606C4D27
:103F60002D682C601146441A4C60694C24680C6022
:103F7000694D4C682C60694D4C682C604FF00044D2
:103F8000674D2C6030BD2DE9F04104464FF000082C
:103F9000FEF7CBFB5E48006808B9FFF7C3FF604837
:103FA0000068204000285FD1A4B1083404F0070065
:103FB00080B104F00700C0F10800044404F00700D9
:103FC00008B9012000E0002020B9662255A15FA0B9
:103FD00000F0FEF8002C47D050480068844243D8D7
:103FE0004A4E3046056801E02E462D686868A042BA
:103FF00002D228680028F7D145480068854233D0AE
:10400000306800F10808286830606868001B1028D4
:1040100013D92F1907F0070008B9012000E000208C
:1040200020B989223FA149A000F0D2F86868001B9E
:1040300078606C603846FFF745FF38496868096862
:10404000081A3649086008460068334909688842FA
:1040500003D232480068304908603149686809680D
:104060000843686000202860FEF7B4FA08F00700F3
:1040700008B9012000E0002020B9C52229A133A001
:1040800000F0A6F84046BDE8F08170B5064635461A
:10409000002E33D0083D2C4621496068096808404D
:1040A00008B1012000E0002020B9D7221DA127A0DF
:1040B00000F08EF8206808B9012000E0002020B947
:1040C000D82218A121A000F083F81549606809687A
:1040D000084098B1206888B9114960680968884328
:1040E0006060FEF722FB0D496068096808440B49CF
:1040F00008602046FFF7E6FEFEF76CFA70BD074841
:1041000000687047044800687047704794000020BA
:104110009C0000200C040020A4000020A00000202F
:10412000A80000202E2E5C2E2E5C4672656552542F
:104130004F535C706F72745C4D656D4D616E675C62
:10414000686561705F342E63000000004572726F15
:10415000723A25732C25640D0A00000040EA010321
:104160009B0703D009E008C9121F08C0042AFAD22D
:1041700003E011F8013B00F8013B521EF9D27047F1
:1041800030B50B46014600202022012409E021FA27
:1041900002F59D4205D303FA02F5491B04FA02F524
:1041A0002844151EA2F10102F1DC30BD064C074D7A
:1041B00006E0E06840F0010394E8070098471034F7
:1041C000AC42F6D3FBF7B8FFC8430008E843000849
:1041D0000FB4054B10B503A9044A029800F018F873
:1041E00010BC5DF814FB0000FB140008AC000020BC
:1041F00002E008C8121F08C1002AFAD170477047B0
:10420000002001E001C1121F002AFBD1704700000D
:104210002DE9FF4F8BB09A460F460546002606E073
:1042200025280BD052460D9990476D1C761C287896
:104230000028F5D10FB03046BDE8F08F0024A0462D
:104240000122604900E0044315F8013F203B02FAD7
:1042500003F00842F7D128782E2817D115F8010F5E
:1042600044F004042A280ED06FF02F022878A0F121
:10427000300109290AD808EB880102EB410100EB63
:1042800001086D1CF2E757F8048B6D1C287869282B
:104290003ED006DC0028CDD063280BD0642804D1A2
:1042A00036E0732810D075284BD052460D999047B0
:1042B000761C85E017F8040B8DF8000000208DF8BF
:1042C0000100E946012003E057F8049B4FF0FF305E
:1042D00061074FF0000401D40AE0641C44450DDA84
:1042E0008442FADB19F804100029F6D106E0641CB8
:1042F0008442FCDB19F804100029F8D1264404E0BC
:1043000019F8010B52460D999047641EF8D257E0F8
:1043100001CF4FF00A0B002802DA40422D2102E0C3
:10432000210504D52B218DF82410012103E0E1079C
:1043300005D02021F7E70DF1200908910CE00021BC
:10434000F9E701CF4FF00A0BF9E75946FFF718FFDD
:1043500001F1300209F8012D0028F6D1ADEB09007A
:1043600000F1200B600701D44FF00108D84502DDB1
:10437000A8EB0B0000E000208046002406E009A81E
:104380005246005D0D999047641C761C0898844243
:10439000F5DB04E0302052460D999047761CB8F1C9
:1043A0000001A8F10108F5DC05E019F8010B5246FF
:1043B0000D999047761CBBF10001ABF1010BF4DCC9
:1043C0006D1C34E709280100E843000800000020C4
:1043D000B0000000F041000898440008B000002040
:1043E000609700000042000800A24A04000000009C
:1043F0000000000001020304060708090000000095
:104400000102030401020304060708090204060866
:10441000000000000000000000000000000000009C
:10442000000000000000000000000000000000008C
:10443000000000000000000000000000000000007C
:10444000000000000000000000000000000000006C
:10445000000000000000000000000000000000005C
:10446000000000000000000000000000000000004C
:10447000AAAAAAAA00000000000000000000000094
:10448000000000000000000000000000000000002C
:08449000000000000000000024
:0400000508000131BD
:00000001FF
